:03000000020BA749
:0C0BA700787FE4F6D8FD758120020BEE8B
:0A0DC1008FA0C2B2120D15C2B422B9
:100CE5007F38120DC17F0A7E00120D1D7F0F120D78
:100CF500C17F0A7E00120D1D7F01120DC17F0A7E84
:100D050000120D1D7F81120DC17F0A7E00020D1D8F
:0A0DCB008FA0D2B2120D15C2B4229F
:0C0D9E007F01120DC17F017E00020D1DBF
:100D3D008B188A19891AAB18AA19A91A120D856070
:100D4D0013051AE51A7002051914F9120D85FF1213
:050D5D000DCB80E22235
:080D1500C2B3D2B47F017E00DD
:100D1D00E4FDFCC3ED9FEC9E5015E4FBFA0BBB000C
:0F0D2D00010ABA01F8BBF4F50DBD00010C80E41A
:010D3C002294
:1009B9002D2D2D446F6F72204C6F636B2D2D2D00E3
:1009C90053656375726974792053797374656D0021
:1009D9006F70656E2062792052464944203A203171
:1009E900006F70656E2062792050415353203A2080
:1009F90032002D2D2D524649442042617365642DE4
:100A09002D2D005363616E20596F757220436172F9
:100A1900643A0052666964204E6F2E2069733A0069
:100A29003437433334454437002D2D2D504153532A
:100A39002042617365642D2D2D00456E7465722009
:100A490054686520504153530034204469676974E0
:100A5900203A200031323334002D496E76616C69B9
:100A690064206F7074696F6E2D002121212121216D
:100A790021212121212121212121002D2D2D415506
:100A890054484F52495345442D2D2D002D2D446F67
:100A99006F7220556E6C6F636B65642D2D002D2D63
:100AA900554E415554484F52495345442D2D002D1B
:100AB9002D2D446F6F72206C6F636B65642D2D2D26
:100AC9000054727920416E6F7468657220434152F7
:100AD900440054727920416E6F74686572205041E8
:030AE90053530064
:030DD50001170003
:10080000120DAA120CE5120D9E7BFF7A0979B9121E
:100810000D3D7FC0120DC17BFF7A0979C9120D3DD4
:100820007FE87E03120D1D120D9E7BFF7A0979D998
:10083000120D3D7FC0120DC17BFF7A0979EA120DBE
:100840003D120AEC8F17E517643160030208F312BA
:100850000D9E7BFF7A0979FB120D3D7FC0120DC101
:100860007BFF7A0979C9120D3D7FF47E01120D1DBF
:10087000120D9E7BFF7A0A790C120D3D7FC0120D7E
:10088000C1E4F516F516120DB674092516F8A6077B
:100890000516C3E5166480948840EB74092516F8A4
:1008A000E4F6120D9E7BFF7A0A791C120D3D7FC083
:1008B000120DC1E4F51674092516F8E6FF120DCBEA
:1008C0000516C3E5166480948840EB7FE87E03122A
:1008D0000D1D751BFF751C0A751D29751E00751FE2
:1008E000087B007A007909120C33EF700302098744
:1008F00002098DE51764326003020993120D9E7B95
:10090000FF7A0A7932120D3D7FC0120DC17BFF7A4A
:100910000979C9120D3D7FF47E01120D1D120D9E45
:100920007BFF7A0A7943120D3D7FC0120DC17BFF18
:100930007A0A7952120D3DE4F508120AEC74122578
:1009400008F8A60774122508F8E6FF120DCB7F649D
:100950007E00120D1D0508E508C3940440DC7412E6
:100960002508F8E4F67FF47E01120D1D751BFF7556
:100970001C0A751D5D751E00751F047B007A0079C9
:1009800012120C33EF7006120D62020827120CA22D
:100990000208277F01120DC17BFF7A0A7962120DCE
:1009A0003D7FC0120DC17BFF7A0A7973120D3D7F26
:0909B000F47E01120D1D0208275E
:100D62007F01120DC17BFF7A0A7984120D3D7FC08B
:100D7200120DC17BFF7A0A7995120D3D7FE87E0341
:030D8200020D1D42
:100CA2007BFF7A0A79A7120D3D7FC0120DC17BFF2F
:100CB2007A0A79B8120D3D7F01120DC17F02120D21
:100CC200C1E517B431087BFF7A0A79CA800BE517B0
:100CD200B432097BFF7A0A79DB120D3D7FE87E038D
:030CE200020D1DE3
:030DD800012000F7
:0C0DAA007589A0759850758DFDD28E22C1
:0B0DB6003098FD859920C298AF2022E4
:100AEC00D297D296D295D294C290D291D292D293DE
:100AFC002094063094FD7F31222095063095FD7FA1
:100B0C0032222096063096FD7F33222097063097AE
:100B1C00FD7F4122D290C291D292D2932094063082
:100B2C0094FD7F34222095063095FD7F352220964A
:100B3C00063096FD7F36222097063097FD7F4222A5
:100B4C00D290D291C292D2932094063094FD7F37EA
:100B5C00222095063095FD7F38222096063096FD92
:100B6C007F39222097063097FD7F4322D290D29175
:100B7C00C292C2932094063094FD7F2A22209506BF
:100B8C003095FD7F30222096063096FD7F23223053
:0B0B9C009703020AEC3097FD7F442213
:100BB300020800E493A3F8E493A34003F68001F250
:100BC30008DFF48029E493A3F85407240CC8C33343
:100BD300C4540F4420C8834004F456800146F6DF12
:100BE300E4800B0102040810204080900DD5E47EC0
:100BF300019360BCA3FF543F30E509541FFEE49307
:100C0300A360010ECF54C025E060A840B8E493A3CD
:100C1300FAE493A3F8E493A3C8C582C8CAC583CAF8
:100C2300F0A3C8C582C8CAC583CADFE9DEE780BEB0
:010DDB000017
:100D8500BB010689828A83E0225002E722BBFE026C
:090D9500E32289828A83E493229F
:100C33008B188A19891AAB1BAA1CA91D120D85FED4
:100C4300AB18AA19A91A120D85FF6E702BEF600D50
:100C5300E51F151F7002151E14451E70037F002229
:100C63007401251AF51AE43519F5197401251DF5D2
:100C73001DE4351CF51C80BEAB18AA19A91A120D68
:100C830085FDD3EE6480F8ED64809840037F0122F4
:0F0C9300AB1BAA1CA91D120D85FFC3ED9FFF22ED
:00000001FF
